{
  "contractName": "SimpleAdder",
  "abi": [
    {
      "inputs": [],
      "stateMutability": "nonpayable",
      "type": "constructor"
    },
    {
      "inputs": [],
      "name": "total",
      "outputs": [
        {
          "internalType": "uint256",
          "name": "",
          "type": "uint256"
        }
      ],
      "stateMutability": "view",
      "type": "function",
      "constant": true
    },
    {
      "inputs": [
        {
          "internalType": "uint256",
          "name": "_number",
          "type": "uint256"
        }
      ],
      "name": "addNumber",
      "outputs": [],
      "stateMutability": "nonpayable",
      "type": "function"
    },
    {
      "inputs": [],
      "name": "getTotal",
      "outputs": [
        {
          "internalType": "uint256",
          "name": "",
          "type": "uint256"
        }
      ],
      "stateMutability": "view",
      "type": "function",
      "constant": true
    }
  ],
  "bytecode": "0x608060405234801561001057600080fd5b5060008081905550610207806100276000396000f3fe608060405234801561001057600080fd5b50600436106100415760003560e01c80632ddbd13a14610046578063775a25e314610064578063fce6802314610082575b600080fd5b61004e61009e565b60405161005b9190610110565b60405180910390f35b61006c6100a4565b6040516100799190610110565b60405180910390f35b61009c600480360381019061009791906100d8565b6100ad565b005b60005481565b60008054905090565b8060056100ba919061012b565b60008190555050565b6000813590506100d2816101ba565b92915050565b6000602082840312156100ea57600080fd5b60006100f8848285016100c3565b91505092915050565b61010a81610181565b82525050565b60006020820190506101256000830184610101565b92915050565b600061013682610181565b915061014183610181565b9250827fffffffffffffffffffffffffffffffffffffffffffffffffffffffffffffffff038211156101765761017561018b565b5b828201905092915050565b6000819050919050565b7f4e487b7100000000000000000000000000000000000000000000000000000000600052601160045260246000fd5b6101c381610181565b81146101ce57600080fd5b5056fea264697066735822122048f67e74284eb640ce75a7dc1aedd483c536a1bb233d26a0359efa84a1a495a964736f6c63430008000033",
  "immutableReferences": {},
  "source": "// SPDX-License-Identifier: MIT\r\npragma solidity ^0.8.0;\r\n\r\ncontract SimpleAdder {\r\n    uint256 public total;  \r\n    constructor() {\r\n        total = 0;\r\n    }\r\n    function addNumber(uint256 _number) public {\r\n        total = 5 + _number; \r\n    }\r\n    function getTotal() public view returns (uint256) {\r\n        return total;\r\n    }\r\n}\r\n",
  "sourcePath": "P:\\react js project\\blockchain_practice\\server\\contracts\\SimpleAdder.sol",
  "compiler": {
    "name": "solc",
    "version": "0.8.0+commit.c7dfd78e.Emscripten.clang"
  },
  "schemaVersion": "3.4.16",
  "updatedAt": "2024-09-19T14:22:44.511Z",
  "networkType": "ethereum",
  "devdoc": {
    "kind": "dev",
    "methods": {},
    "version": 1
  },
  "userdoc": {
    "kind": "user",
    "methods": {},
    "version": 1
  }
}