{
  "contractName": "SimpleStorage",
  "abi": [
    {
      "inputs": [],
      "name": "count",
      "outputs": [
        {
          "internalType": "uint128",
          "name": "",
          "type": "uint128"
        }
      ],
      "stateMutability": "view",
      "type": "function",
      "constant": true
    },
    {
      "inputs": [],
      "name": "getCount",
      "outputs": [
        {
          "internalType": "uint128",
          "name": "",
          "type": "uint128"
        }
      ],
      "stateMutability": "view",
      "type": "function",
      "constant": true
    },
    {
      "inputs": [],
      "name": "setCountIncrement",
      "outputs": [],
      "stateMutability": "nonpayable",
      "type": "function"
    },
    {
      "inputs": [],
      "name": "setCountDecrement",
      "outputs": [],
      "stateMutability": "nonpayable",
      "type": "function"
    }
  ],
  "bytecode": "0x608060405260008060006101000a8154816fffffffffffffffffffffffffffffffff02191690836fffffffffffffffffffffffffffffffff16021790555034801561004957600080fd5b506103b8806100596000396000f3fe608060405234801561001057600080fd5b506004361061004c5760003560e01c806306661abd1461005157806320d681421461006f578063a87d942c14610079578063f38a8e3114610097575b600080fd5b6100596100a1565b6040516100669190610291565b60405180910390f35b6100776100c1565b005b610081610126565b60405161008e9190610291565b60405180910390f35b61009f61014b565b005b60008054906101000a90046fffffffffffffffffffffffffffffffff1681565b60016000808282829054906101000a90046fffffffffffffffffffffffffffffffff166100ee91906102bd565b92506101000a8154816fffffffffffffffffffffffffffffffff02191690836fffffffffffffffffffffffffffffffff160217905550565b60008060009054906101000a90046fffffffffffffffffffffffffffffffff16905090565b60008060009054906101000a90046fffffffffffffffffffffffffffffffff166fffffffffffffffffffffffffffffffff16116101bd576040517f08c379a00000000000000000000000000000000000000000000000000000000081526004016101b490610271565b60405180910390fd5b60016000808282829054906101000a90046fffffffffffffffffffffffffffffffff166101ea9190610303565b92506101000a8154816fffffffffffffffffffffffffffffffff02191690836fffffffffffffffffffffffffffffffff160217905550565b600061022f601a836102ac565b91507f436f756e742063616e6e6f7420676f2062656c6f77207a65726f0000000000006000830152602082019050919050565b61026b81610337565b82525050565b6000602082019050818103600083015261028a81610222565b9050919050565b60006020820190506102a66000830184610262565b92915050565b600082825260208201905092915050565b60006102c882610337565b91506102d383610337565b9250826fffffffffffffffffffffffffffffffff038211156102f8576102f7610353565b5b828201905092915050565b600061030e82610337565b915061031983610337565b92508282101561032c5761032b610353565b5b828203905092915050565b60006fffffffffffffffffffffffffffffffff82169050919050565b7f4e487b7100000000000000000000000000000000000000000000000000000000600052601160045260246000fdfea2646970667358221220c7b8ffdc8e9f7893d4763001130b10d1d0f238b6712ccafc65dcb07b8d1b0c3b64736f6c63430008000033",
  "immutableReferences": {},
  "source": "// SPDX-License-Identifier: GPL-3.0\r\npragma solidity ^0.8.0;\r\n\r\ncontract SimpleStorage {\r\n    uint128 public count = 0;\r\n\r\n    function getCount() public view returns (uint128) {\r\n        return count;\r\n    }\r\n\r\n    function setCountIncrement() public {\r\n        count += 1;\r\n    }\r\n\r\n    function setCountDecrement() public {\r\n        require(count > 0, \"Count cannot go below zero\");\r\n        count -= 1;\r\n    }\r\n}\r\n",
  "sourcePath": "P:\\react js project\\blockchain_practice\\server\\contracts\\Increment_decrement.sol",
  "compiler": {
    "name": "solc",
    "version": "0.8.0+commit.c7dfd78e.Emscripten.clang"
  },
  "schemaVersion": "3.4.16",
  "updatedAt": "2024-09-19T14:22:44.697Z",
  "networkType": "ethereum",
  "devdoc": {
    "kind": "dev",
    "methods": {},
    "version": 1
  },
  "userdoc": {
    "kind": "user",
    "methods": {},
    "version": 1
  }
}